:020000040800F2
:1000000068990020B9230008B5D10008198A0008B2
:1000100059AF0008BD3400085D270108000000004A
:10002000000000000000000000000000CB230008DA
:100030008141000800000000CF230008CDFD00082A
:10004000D3230008D3230008D3230008D3230008B8
:10005000D3230008D3230008D3230008D3230008A8
:10006000D3230008D3230008D32300084506000843
:10007000D3230008114000081D4000082940000853
:10008000D3230008D3230008D3230008D323000878
:10009000E5260108D3230008D3230008D323000852
:1000A000D3230008D3230008D3230008D323000858
:1000B000D3230008D3230008D3230008D323000848
:1000C000D3230008D3230008D3230008D323000838
:1000D000D32300085D0B0108D3230008D3230008B5
:1000E000290B0010D3230008D3230008D3230008D2
:1000F000D3230008D3230008D3230008D323000808
:10010000000000000000000000000000D3230008F1
:10011000D3230008D32300087D23000879FF0008BB
:1001200035400008D323000841400008D3230008CD
:10013000D3230008D32300080000000000000000C3
:10014000D3230008D3230008D323000800000000B5
:10015000000000000000000000000000000000009F
:100160000000000000000000D3230008D323000893
:10017000D323000800000000000000000000000081
:1001800000000000D3230008DFF80CD002F0DCFDF3
:1001900000480047756201086899002070B5D74C87
:1001A000A08C10B1A08C401EA084218E01200025BF
:1001B000B1F5967F39BF491C218625862070E18BD9
:1001C0000A293CBF491CE18306D3E583618C491CA5
:1001D0006184E18C491CE184218C0A2939BF491CC6
:1001E00021842584E07020852071D4E91E12491CE9
:1001F00042F10002C4E91E122072E08D03283CBFC8
:10020000401CE0851ED34FF0A040E585816841F099
:1002100005018160D0F8081141F00501C0F808110E
:100220008000016841F001010160B548016841F0BA
:1002300001010160B348016841F0040101600B2035
:1002400005F005FF607A05283CBF401C60720BD3A7
:100250006572E07B002808BFA57205D0A07A00284F
:100260000CBF01200020A072BDE870400FF084BEDA
:100270002DE9F84F06460C460868A3A10EF0CEF90A
:1002800000279E4D002818BF012E04D960680EF08B
:100290002BFA28746F759FA120680EF0BFF9002813
:1002A00018BF012E03D960680EF01EFA68749BA176
:1002B00020680EF0B3F9002818BF012E03D960683A
:1002C0000EF012FAA87497A120680EF0A7F9002882
:1002D00018BF012E03D960680EF006FAE87493A1E6
:1002E00020680EF09BF9002818BF012E03D9606822
:1002F0000EF0FAF9287590A120680EF08FF9DFF85A
:100300004092002818BF012E04D960680EF0ECF965
:1003100089F800008BA120680EF080F9DFF82CA28C
:10032000002818BF012E04D960680EF0DDF98AF8A4
:10033000000087A120680EF071F9DFF81CB20028D8
:1003400018BF012E04D960680EF0CEF98BF80000BA
:1003500082A120680EF062F9002818BF012E04D98E
:1003600060680EF0C1F98049088080A120680EF015
:1003700055F94FF00108002818BF032E18D96068FE
:100380000EF0B2F989F80000A0680EF0ADF98AF815
:100390000000E0680EF0A8F9C3B28BF80030CDF889
:1003A00000809AF8002099F80010002000F090FDDD
:1003B00070A120680EF032F9002818BF012E03D971
:1003C00060680EF0AEF96F856EA120680EF026F918
:1003D000002818BF012E04D960680EF0A2F917F0AA
:1003E000BBFE6BA120680EF019F9002818BF012E82
:1003F00007D960680EF095F9286517F0ADFE85F80D
:10040000158066A120680EF009F9002818BF012E9A
:100410002CD960680EF085F9DFF88891012803D0A7
:1004200050B1022811D021E00FF00AFC89F80080B9
:100430002F730021687917E00FF0E8FB89F800704E
:10044000002185F80C8008460EE099F8000000288D
:100450001CBF287B012849D089F800700FF0D6FB1B
:10046000002185F80C8008460FF05CFB4EA1206847
:100470000EF0D4F8002818BF012E07D960680EF0DE
:1004800050F9012804BF00200EF0BAFC49A12068F1
:100490000EF0C4F8002818BF012E08D960680EF0CD
:1004A00040F9474901280CBF81F800800F7045A131
:1004B00020680EF0B3F8002818BF012E06D9606836
:1004C0000EF02FF94249088000F00FF941A1206891
:1004D0000EF0A4F8002818BF012E98BFBDE8F88FD1
:1004E00060680EF01EF96885BDE8F88F89F8008015
:1004F0000FF0A6FB2F7300216879B5E75046002066
:1005000000040040007400406765745F62756666B1
:10051000000000006765745F647066006765745F63
:1005200073696E006765745F646163006765745F1B
:1005300077696E646F770000736574520000000085
:1005400012560020736574550000000013560020F9
:1005500073657449000000001456002073657443ED
:100560006F756E74000000003E5600207365745273
:1005700055490000736574444143706572696F6446
:1005800000000000736574444143667265710000A9
:100590007365744441435465737400007365744C0F
:1005A000434400001E570020504F5745525F4F46AE
:1005B00046000000697353657269616C00000000B9
:1005C0004B4A00204441435F5A45524F000000000F
:1005D000A84900206175746F6672657100000000A3
:1005E000264810B5264A0068106000F001FA00F0B5
:1005F00073F82449244A6420488012880024B2FBFE
:10060000F0F0224A1070C82048602148048002F0AF
:10061000D8FB2048047010BD1A480188002908BF83
:10062000704710B5002101800AF0C0FC002818BFF7
:1006300010BD19480078002818BF10BDBDE8104053
:1006400001F0E2BD70B5154D28680E4C10F0020F98
:1006500006D00220686062881148114602F0B6FB9D
:10066000286810F0040F08BF70BD0420686062881D
:10067000BDE8704000210A4802F0A8BBC84900202C
:10068000B4460020A0480020B2490020094A0020BA
:10069000405600201E5600200D4B00200000024056
:1006A0004078002000000000FD494869002804BF90
:1006B000B7EE000A704791ED0F0AF8EE400A00EE1F
:1006C000100AB8EE400A80EE801ABCEEC10A81ED35
:1006D000120AB8EE400A7047F14800697047F048C6
:1006E00041690069B1FBF0F070472DE9F047EC4C2F
:1006F0002DED0C8BA18920698842B1FBF0F13CBF44
:10070000414361811BD3C9B200FB01F292B2628105
:10071000824288BFDFF88CC311D900BF00FB01F211
:1007200092B2ACFB02535D09491E6FF018036B4394
:100730006281C9B212EB830318BF8242EED861898D
:10074000002908BF6081E0646689216CD64A714344
:10075000116002F0A9F841EC100B53EC102B9FED47
:10076000D40B51EC100B02F009F841EC190B0025E9
:10077000002E84BFD04FD14E23D92069B5FBF0F1B4
:1007800000FB115002F090F853EC192B01F084FF9C
:1007900002F012F900EE100A13F030FC10EE100A0D
:1007A00002F0C7F841EC180B3878012818BF2088F0
:1007B0007ED000BF26F81500681C85B2608985428E
:1007C000DBD39FEDBF8B206CBF4E012860894FF0BB
:1007D0000005A0F101007FD90028DCBFBDEC0C8B27
:1007E000BDE8F0872069B5FBF0F100FB115002F085
:1007F0005BF853EC192B01F04FFF41EC100B84ED2B
:10080000160B02F0D9F800EE100A13F0F7FB10EE09
:10081000100A02F08EF894ED160B41EC1B0B51EC14
:10082000100B02F0C9F800EE100A13F0A5FB10EE51
:10083000100A02F07EF841EC1A0B53EC182B51EC25
:100840001B0B01F029FF894649EC100B074651ECC0
:10085000100B02F036F849EC107B804651EC100B7F
:1008600002F02FF868F31F4046F8250053EC182BD0
:1008700051EC1A0B01F010FF884648EC100B0746AC
:1008800051EC100B02F01DF848EC107B814651EC46
:10089000100B02F016F8014606EB850069F31F41C4
:1008A0004160A81C85B26089401EA8429ADC01E024
:1008B00004E011E0BDEC0C8BBDE8F087608801F02E
:1008C000F3FF53EC182B01F0E7FE41EC100B12F094
:1008D000FFFC218808446DE70028E8DD2069B5FBAE
:1008E000F0F100FB115001F0DFFF53EC192B01F088
:1008F000D3FE41EC100B84ED160B02F05DF800EE18
:10090000100A13F07BFB10EE100A02F012F894EDBF
:10091000160B41EC1A0B51EC100B02F04DF800EEE7
:10092000100A13F029FB10EE100A02F002F841EC55
:100930001B0B2169681CB0FBF1F201FB120001F0F6
:10094000B3FF53EC192B01F0A7FE41EC100B84ED23
:10095000160B02F031F800EE100A13F04FFB10EE08
:10096000100A01F0E6FF94ED160B41EC1C0B51EC64
:10097000100B02F021F800EE100A13F0FDFA10EE51
:10098000100A01F0D6FF41EC1D0B53EC182B51EC73
:100990001C0B01F081FE01F094FF074653EC182B6D
:1009A00051EC1A0B01F078FE01F08BFF67F31F404A
:1009B00046F8250053EC182B51EC1D0B01F06CFE92
:1009C00001F07FFF074653EC182B51EC1B0B01F095
:1009D00063FE01F076FF06EB850167F31F40486078
:1009E000A81C85B26089401EA8423FF777AF5EE73A
:1009F0002DE9F0432A4D93B00E460446686515F084
:100A0000DBFB2E81A888B6FBF0F0304E6880B06D1D
:100A100020F00100B06501222A642D482C616A642F
:100A20000078002804BF40F6B830A8810AD0012819
:100A300008BF4FF4FA6004D0022808BF4FF47A7060
:100A400000D1A881A889A04219D22318B4FBF0F1E3
:100A50005B1EB3FBF0F32964994238BFB4F1004F39
:100A600080F00681631E00FB0232B2FBF0F2501AE6
:100A70001CBF08442864286CB4FBF0F02861296985
:100A8000286C48436861134813490068A1FB0010B3
:100A90000009E863FFF729FE1048416920E00000E3
:100AA000A84900201F85EB51C44800200000000029
:100AB000182D4454FB211940F94A0020E02E002053
:100AC00000000000C0FFDF400000002000000240E6
:100AD0005746002088470020ABAAAAAA001002406F
:100AE00041F001014161416901F001010091416959
:100AF00041F002014161416901F002010091C169C7
:100B000041F00101C161C069714F00F00100009026
:100B10006E48386010200024C7E901044FF08008B7
:100B20000001C7E90380800078612020B8614FF49C
:100B30004050F861384604F0A7FF002818BF03F0C2
:100B4000B1FE6448476278626989F165624931663D
:100B5000624971664FF080470760296C4FF01709B2
:100B6000491EC0E90114C0E90394446106F0B8FECF
:100B7000002818BF03F096FE594D5A48C0E90054AA
:100B8000C0E902490461446106F0AAFE002818BFCA
:100B900003F088FE4FF480590AA94E48CDF82890FA
:100BA00006F0B5FF002818BF03F07CFE0AA94D48E7
:100BB000CDF8289006F0ABFF002818BF03F072FEB6
:100BC000444807F0E7F9002818BF03F06BFE4548DA
:100BD00007F0E0F9002818BF03F064FE40200E90F3
:100BE0000EA9CDF840803B4806F030FE002818BF23
:100BF00003F058FE70204FF00C08CDE902080820E1
:100C0000CDE9044006940794002202A931480894D3
:100C100007F080F8002818BF03F044FE0C2202A958
:100C20003048CDF80C8007F075F8002818BF03F0A5
:100C300039FEF86840F40070F8600021254807F09C
:100C4000B1FB0C21274807F0ADFBB06D40F001006F
:100C5000B065254804607C62386840F00100386067
:100C6000286840F00100286013B0BDE8F08300BFA1
:100C700000FB01F2A242BFF4FEAE491C00FB01F2F0
:100C8000A242FAD32964F6E618490968B1FBF0F0EC
:100C900040F29361ACE670B5154C0D46A0802189F9
:100CA000B1FBF0F06080FFF720FD002D08BF70BDA4
:100CB00003F0FCFD0F48A188C08903F031FDBDE8B9
:100CC000704003F0F1BD0A480079704758000240B7
:100CD000D87A00209C6A002020740040E02E00207A
:100CE00000040040E86A00202404004088470020F7
:100CF000A84900203E8C0108FE48FD49816303217C
:100D00004170704770B5FB4CFB48A063FFF7CCFC0B
:100D1000BDEEC00AF949052510EE100A88420BDC29
:100D2000FFF7C2FCBDEEC00AF54910EE100A814281
:100D3000A2BF0620607070BD657070BDF7EE080A36
:100D4000B7EE000A082805D2EE49085C00EE100A4A
:100D5000B8EE400A20EE800A7047E648007CF7EEC5
:100D6000080AB7EE000A082805D2E649085C00EE3A
:100D7000100AB8EE400A20EE800A7047DD48407C39
:100D8000F7EE080AB7EE000A082805D2DD49085C2C
:100D900000EE100AB8EE400A20EE800A70479FED80
:100DA000DA0AD448C17B21B1012908BF9FEDD70AD7
:100DB0007047008C00EE100AB8EE400A7047D44825
:100DC00030B40388CB48D34AB0F828C0126803FB7C
:100DD0000CF1B2FBF1F18CB2CF4984860A68CF499D
:100DE0000D6840F65431AA4219D0CD4D2D68AA4263
:100DF00015D0CC4D2D68AA4211D0CB4D2D68AA42FA
:100E00000DD0CA4D2D68AA4209D0C94D2D68AA42FD
:100E100005D0C84D2D68AA421CBFC74D2D688184DE
:100E20004FF448614185C17900291CBF04FB0CF2D5
:100E30008286827B002A04BFC278FF2A05D102790C
:100E4000FF2A02BF002901218186BC4909780029B7
:100E50001CBF02218186808EBA4900FB03F2B84B89
:100E60000968B2FBF1F24A431A608A4201D330BCEE
:100E70007047B34A116030BC704710B502F0CEFD28
:100E80009C4C0020E07320746074E078FF2818BF49
:100E900020742079FF2818BF6074217C012009F09C
:100EA000EDFF617C002009F0E9FF03F063F9A6493A
:100EB00009780EF00BFFA078FF281CBFA078E07324
:100EC000E07B0EF005FF022060710120207010BD54
:100ED0002DE9F047874C8648DDF82090A063032079
:100EE00060709A4800251E46174688460570FFF731
:100EF00066FFE08584F80280E770267184F815901B
:100F000002F08CFDE57325746574E078FF2818BF46
:100F100020742079FF2818BF6074217C012009F01B
:100F2000ADFF617C002009F0A9FF03F023F9864999
:100F300009780EF0CBFEA078FF281CBFA078E073E4
:100F4000E07B0EF0C5FE0220607101202070BDE83C
:100F5000F0872DE9F04F674C2DED0E8B87B0218E79
:100F60009FED7BBB4FF001084FF0000959B3B1F57D
:100F70007A7F01D2481C2086207CF7EE000A614966
:100F8000B7EE081AB0EE600A082804D2085C00EE3A
:100F9000100AB8EE400AF0EE411A607C61EE80DA89
:100FA000082804D2085C00EE100AF8EE400A21EE90
:100FB00020DA9FED55CAE07B002829D0012808BF20
:100FC0009FED52CA29E06448A4F832800022C0E9AB
:100FD0000822C0E90A22C0E90222C0F83090C0E924
:100FE00004225E4B0020C3E900225D4BC3E90022CE
:100FF0005C4BC3E900225C4BC3E900005B48C0F8CE
:10100000009084ED1CBB84ED1EBBA4F82290B1E7D8
:10101000208C00EE100AB8EE40CA554890ED000A48
:10102000DFED540A544860EE20CA00789FED53EA81
:10103000DFF84CB1012804D052480078002800F0B5
:10104000F381658CF92D4FD24D4814F0C9FE5D46F1
:10105000B0EE408AD5E9020101F0FFFB00EE100A74
:10106000C0EE080A10EE900A01F063FCCDE9000121
:10107000D5E9040101F0F1FB00EE100AC0EE080A08
:1010800010EE900A01F055FCCDE902019DE88304C1
:1010900001F092FC06463846514601F08DFC09EEFF
:1010A000100AD5E9080108EE906A01F0D6FB00EEBF
:1010B000100AC0EE080A10EE900A01F03AFCCDE9E1
:1010C0000001D5E90A0101F0C8FB00EE100AC0EEEC
:1010D000080A10EE900A01F02CFCCDE902019DE80F
:1010E000C30001F069FC4FE0C6E000000000000012
:1010F000848D010810560020878D0108F0B405008A
:10110000486B0100505600200000C84200401C46B9
:10111000B2490020E4490020BC490020C049002019
:10112000C4490020C8490020CC490020D4490020EF
:10113000D8490020DC490020E04900205F4600201B
:10114000C0480020C4480020F84A00204D4A002032
:101150000000000000000000007C0020F04800209B
:10116000F84800200049002008490020B448002029
:101170009849002000008039484A00200000000003
:10118000407800206046002005463046394601F090
:1011900013FC8CEEAD1A08EE105A09EE900AF0EE30
:1011A0004E1AF0EE490AB0EE680A11F02BFC8CEEF4
:1011B0008D1AB0EE409AF0EE608AF0EE4E1AF0EE24
:1011C000690AB0EE480A11F01DFCF0EE601AB0EEAC
:1011D000401AF0EE680AB0EE490A11F002FCF0EE97
:1011E0004E1AB0EE4C1A11F00DFC10EE105A10EE23
:1011F000906A284601F09DFB07468A46304601F07A
:1012000098FBCDE9007ACDE902019DED000B51EC90
:10121000100B01F0D1FBFE49628C41F8220001F075
:1012200088FB94ED1C1B53EC112B01F08EF9C4E9E3
:101230001C01284601F07DFB05460F46304601F0B3
:1012400078FBCDE90057CDE902019DED020B51EC91
:10125000100B01F0B1FBEF49658C41F8250001F05E
:1012600068FB94ED1E1B53EC112B01F06EF9C4E9E1
:101270001E01681C6084D7E0284601F015FB0E466D
:1012800046EC100B074653EC102B94ED1C0B51EC65
:10129000100B01F073FA41EC180B46EC107B84ED57
:1012A0001C8B53EC102B94ED1E0B51EC100B01F02A
:1012B00065FA41EC190B681E84ED1E9B84ED16BB8C
:1012C00084ED18BB002845DDD14E87B206F57A754E
:1012D000D6F800A0504601F02CFB53EC182B01F07F
:1012E000D5F941EC1A0B504601F023FB53EC182BB7
:1012F00001F0CCF953EC1A2B01F0CEF994ED161B4A
:1013000053EC112B01F021F9C4E91601D5F800A026
:10131000504601F00EFB53EC192B01F0B7F941ECEC
:101320001A0B504601F005FB53EC192B01F0AEF9F6
:1013300053EC1A2B01F0B0F994ED181B53EC112B60
:1013400001F003F9C4E91801781E2D1D361D0704AC
:101350003F0CBDD1B0EE4B9AF0EE6B9A53EC192BCB
:1013600051EC180B01F0F8FA07D294ED1C0B51EC7C
:10137000100B81F00041C4E91C0194ED1E0B53ECED
:10138000192B51EC100B01F0E7FA07D294ED1E0B6C
:1013900051EC100B81F00041C4E91E01608C01F09A
:1013A00083FA41EC100B53EC102B94ED160B51EC1F
:1013B000100B01F0E3F941EC100B12F079F89FEDFE
:1013C000968B51EC100B53EC182B01F065F994ED52
:1013D0001C1B53EC112B01F0D1F9C4E91601608CF0
:1013E00001F062FA41EC100B53EC102B94ED180B4A
:1013F00051EC100B01F0C2F941EC100B12F058F84F
:1014000053EC182B51EC100B01F046F994ED1E1B18
:1014100053EC112B01F0B2F9C4E9180184ED1C9BC7
:1014200084ED1E9BA4F822907D4801F049FDD4E98B
:101430001401C4E912017A480CF0DEFB7949D1E9C4
:101440000005C4E9140501F074FA06460F46284663
:1014500001F06FFACDE90201CDE900679DED021BB5
:101460009DED000B11F058FDB0EE408AF0EE608A61
:1014700094ED120AD4ED130AD4ED141A94ED151A52
:1014800030EE610A70EEC10A10EE100A10EE905AAA
:1014900001F04FFA06460F46284601F04AFACDE918
:1014A0000201CDE900679DED021B9DED000B11F0DF
:1014B00033FD53EC182B51EC100B01F05FF941ECAC
:1014C000100B84ED1A0BA07B10B3608DDBED061AB8
:1014D00001EE100AB8EE411AF4EEC11AF1EE10FA5C
:1014E0001DDC01EE100ADBED001AB8EE411AF4EE35
:1014F000C11AF1EE10FA12DC9FED4B1B51EC100BF0
:1015000053EC112B01F040FA02D24948007830B177
:10151000E08D059001280AD9A07B50B907E084F836
:101520000E90A4F82690A4F8309000F0FDBCE0796D
:1015300060B1404880F834903F480078002802BFEE
:1015400007B0BDEC0E8BBDE8F08F09E05946394875
:10155000B1E8EC1CA0E8EC1C91E86E1080E86E107D
:1015600036480088022818BF03286DD0344800F19F
:10157000700100F1380B91E8EE148BE8EE1400F1E5
:10158000900100F1580091E86E1080E86E10294833
:1015900001F096FC2B4801F093FC264814F020FC47
:1015A000DFF890B0B0EE408ADBE9020101F055F9B6
:1015B00000EE100AC0EE080A10EE900A01F0B9F928
:1015C000CDE90001DBE9040101F047F900EE100A62
:1015D000C0EE080A10EE900A01F0ABF9CDE9020165
:1015E0009DE8C30001F0E8F905463046394601F0B0
:1015F000E3F909EE100ADBE9080108EE905A01F060
:101600002CF900EE100AC0EE080A10EE900A1CE059
:10161000F8600020E0640020000000000000594055
:1016200040780020204900200000000000002440F5
:101630005F460020707C0020AA480020164B002046
:10164000007C0020387C0020B9E001F072F9CDE97F
:101650000001DBE90A0101F000F900EE100AC0EE1A
:10166000080A10EE900A01F064F9CDE90201DDE903
:101670000001DDE9026701F09FF905463046394671
:1016800001F09AF98CEEAD1A09EE905A08EE100AA4
:10169000F0EE4E1AF0EE490AB0EE680A11F0B2F917
:1016A0008CEE8D1AF0EE408AB0EE609AF0EE4E1A93
:1016B000F0EE480AB0EE690A11F0A4F9B0EE401A53
:1016C000F0EE601AF0EE490AB0EE680A11F089F9FE
:1016D000F0EE4E1AB0EE4C1A11F094F910EE105ACA
:1016E00010EE906A284601F024F907468A463046F3
:1016F00001F01FF9CDE9007ACDE902019DED000B63
:1017000051EC100B01F058F909EE900A284601F04F
:1017100010F905460F46304601F00BF9CDE90057A8
:10172000CDE902019DED020B51EC100B01F044F9E3
:10173000FF4D09EE100A287800287CD0FD4ED6E92E
:101740000001C4E92001FC480CF056FAFB4F387840
:101750009FEDFBAB0128E0796ED0002840F0C983F3
:10176000A079002808BF84F8009000F0C28384F8B4
:101770000E90E078FF281CBF2179FF2900F09181AD
:10178000E17A884207D02074217C012009F076FBA1
:101790002079FF2808D02079217B884204D060740A
:1017A000617C002009F06AFBE06B401CE06307F0FD
:1017B00033FF84F81A9084F80E8000F060BBE24A90
:1017C00002F17003D2E9081CD3E9080508184CEBB4
:1017D0000501C2E9080105468C46D2E90A01D3E9B0
:1017E0000A6780197941C2E90A0104908A46D2E960
:1017F0000271D3E9020638187141C2E90201834639
:101800000391D2E90401D3E9046780194F41C2E989
:1018100004070290186B116B01900844106300904C
:10182000668E002332462846614600F008FEC74D0A
:101830003246002301E03AE05DE0C5E90801514687
:10184000049800F0FCFDC5E90A0132460023584621
:10185000039900F0F4FDC5E9020132460023394640
:10186000029800F0ECFDC5E904010098B0FBF6F029
:101870002863E079A8B1A5F1380000F1700100F10A
:10188000380E91E8AE1C8EE8AE1C00F19002D0F844
:10189000A47092E82C100199C0E91A17583080E81A
:1018A0002C100598012884BF701C60866FE6A8483C
:1018B000E1790078884309D019EE901AA54AA64824
:1018C0009142D4BF80F8008080F80090A348A449DA
:1018D0000068814206D9A3498842B8BF84F81690AF
:1018E000FFF62CAFA0480078002806BF0220A075A4
:1018F00084F8168022E7002819BF00218E48617DF8
:1019000092480BF039FE84F80D8087F80090E0795A
:101910009FED978B984F00283FF422AF84F81A80F0
:1019200084F81B90E06B401CE06307F075FE84F8C0
:101930001A90D6E9000A00F0FCFF0546884650469A
:1019400000F0F7FFCDE90058CDE902019DED021B43
:101950009DED000B11F0E0FAB0EE409AF0EE609AC7
:10196000D4ED200A94ED210A96ED001AD6ED011A65
:1019700070EEC10A30EE610A10EE900A10EE105AB5
:1019800000F0D7FF06468846284600F0D2FFCDE992
:101990000068CDE902019DED021B9DED000B11F0E9
:1019A000BBFA53EC192B51EC100B00F0E7FE41ECA5
:1019B000100B84ED1A0B9FED721B53EC112B00F0F2
:1019C000CBFF57D39FED700B53EC102B94ED1A0BFC
:1019D00051EC100B00F0C0FF02D2A07A042849D8C5
:1019E0009FED6B0B53EC102B94ED1A0B51EC100B7D
:1019F00000F0B2FF02D2A07A05283BD894ED1A0B72
:101A000053EC1A2B51EC100B00F0A6FF02D2A07A77
:101A100007282FD894ED1A0B53EC182B51EC100B10
:101A200000F09AFF02D3A07A012802D93878312831
:101A300020D094ED1A0B53EC182B51EC100B00F046
:101A40008BFF02D3A07A012802D93878322811D02E
:101A5000A07A0821401CA072132007F08BFD4EA134
:101A6000012009F0C1F907B0BDEC0E8BBDE8F04FC5
:101A700009F0FAB949494A4884F80A900988008867
:101A8000CDE90001474B48A20821142007F002FAD3
:101A900084F8009007B0BDEC0E8BBDE8F04F0CF061
:101AA0005BB92449D1E9000A00F043FF06460F461E
:101AB000504600F03EFFCDE90201CDE900679DED03
:101AC000021B9DED000B11F027FA1A48B0EE408A78
:101AD000F0EE608A94ED200AD4ED210A90ED001A10
:101AE000D0ED011A30EE410A70EEE10A10EE100A54
:101AF00010EE90AA00F01DFF06460F46504600F07B
:101B000018FFCDE90201CDE900679DED021B9DEDB7
:101B1000000B11F001FA53EC182B51EC100B00F0F4
:101B20002DFE41EC100B84ED1A0B11F009FA3DE08B
:101B30005F46002020490020707C0020AA48002039
:101B40009A9999999999B93F007C0020387C002096
:101B5000F14A00200050C3474B4A0020604A002051
:101B6000000020C1000020414C4A0020000000007D
:101B70007B14AE47E17A743F0E4B0020000000005A
:101B80002D431CEBE2361A3FFCA9F1D24D62503FC7
:101B90007B14AE47E17A843F62616400144A0020FE
:101BA000124A0020045700206F6B000053EC1A2BE0
:101BB00051EC100B00F0D0FE06D3207E002804BFAD
:101BC000FD4880F800905BD0608DDBED060A00EEEA
:101BD000100AB8EE400AF4EEC00AF1EE10FA36D25E
:101BE00000EE100ADBED000AB8EE400AF4EEC00A7F
:101BF000F1EE10FA2BD2607C90B9FFF764F800EB9D
:101C00008000618D4000B1FBF0F000EE100ADBEDCA
:101C1000060AB8EE400AB4EEE00AF1EE10FA16D267
:101C2000207C90B9FFF74FF800EB8000618D4000F9
:101C3000B1FBF0F000EE100ADBED000AB8EE400A4E
:101C4000B4EEE00AF1EE10FA01D284F80E80207EA4
:101C5000012808D0022808BF032010D0032808BF9D
:101C600084F818900CE0D44880F80090D34880F8AD
:101C7000009085F8009001F0A4F8207E401C2076AA
:101C8000B0EEC90A10EE100A00F053FE41EC180B3A
:101C9000B0EEE90A10EE100A00F04BFE53EC182BE0
:101CA00000F053FC41EC180B0526FEF7FDFCBDEEE1
:101CB000C00AC34910EE100A884208DCFEF7F4FCA3
:101CC000BDEEC00ABF4910EE100A814200DA0426B8
:101CD000FEF7EAFCBCEEC00A10EE107AFEF7F3FF46
:101CE000BA498246B84B4A00B9484FEA630C4CF2F5
:101CF000503EBAF1010F03D09F4210D3084620E0B6
:101D00009F42FBD267450CD277450ED242F210714A
:101D10008F4215D2B7F57A7F28BFAE4811E06745EC
:101D200001D310460DE0774501D3AB4809E042F2FC
:101D300010718F4228BFA94803D2B7F57A7F00D32C
:101D4000A74800F0B1FD53EC182B00F005FE25D29A
:101D5000E07B012804BF607CB0421FD1608DDBEDC9
:101D6000060A00EE100AB8EE400AF4EEC00AF1EEE0
:101D700010FA13D200EE100ADBED000AB8EE400AAA
:101D8000F4EEC00AF1EE10FA08D28C4884F80E8006
:101D9000017864293CBF491C017004E0874880F841
:101DA000009085F800909FED900B51EC180B53ECD0
:101DB000102B00F0E9FD09D38D4853EC1B2B90ED5F
:101DC000000B51EC100B00F0C7FD1CD2E07B01288A
:101DD00004BF607CB04216D1608DDBED060A00EED8
:101DE000100AB8EE400AF4EEC00AF1EE10FA0AD278
:101DF00000EE100ADBED000AB8EE400AF4EEC00A6D
:101E0000F1EE10FA39D39FED7C0B51EC180B53EC2B
:101E1000102B00F0A1FD11D2E07B002804BF207C34
:101E2000B0420BD1608DDBED000A00EE100AB8EE77
:101E3000400AF4EEC00AF1EE10FA1ED3E07B01284E
:101E400001BF607CB042207CB04218D1608DDBEDD8
:101E5000060A00EE100AB8EE400AF4EEC00AF1EEEF
:101E600010FA0CD200EE100ADBED000AB8EE400AC0
:101E7000F4EEC00AF1EE10FA01D284F80E80E08D83
:101E8000A085FEF79CFFE085A17BB9B3E18C0A2910
:101E90003CBF491CE18484F81A8084F81B90E16BF4
:101EA000491CE163217E012918BF012809D929783D
:101EB00029B35348017800291CBF80F8009007F02F
:101EC000ABFB84F81A90207FE17B884207D1607FCA
:101ED000217C884203D1A07F617C884207D0E07BCF
:101EE0002077207C6077607CA0770DF03DF806209D
:101EF000207007B0BDEC0E8BBDE8F08F05E0A18D22
:101F0000814208BF07F088FBDBE72C48A4F8269045
:101F1000A4F8309080F800903A4885F80090007856
:101F2000002818BF07F078FB607D00902379E278E5
:101F3000A178E08DFEF7CCFFDBE733480721017085
:101F40000021018670472DE9F0412F4C607E012869
:101F500008BFBDE8F08101256576A17CA06B405CDF
:101F6000E0752A4800F0ACFFE07BA84204D1E07D98
:101F70006178884288BF2575E07C244F4FF0A046E9
:101F800098B9A08CD7ED000A00EE100AB8EE400A0E
:101F9000F4EEC00AF1EE10FA07D2D6F8000110F004
:101FA000800F04BFE07D207404D0217C012008F064
:101FB00065FFE574207D2BE0514A00205D4600203E
:101FC000F0B40500486B0100400D0300C0C62D00B1
:101FD00000A3E11180D1F0088096980040787D013F
:101FE000005A6202000000000000000080842E41C0
:101FF000684A002000000000000000000000F03FE0
:1020000053460020484A0020105600204078002007
:1020100090B9A08CD7ED060A00EE100AB8EE400A7F
:10202000F4EEC00AF1EE10FA06D2306810F0800F1C
:1020300004BFE07D607404D0617C002008F01EFFC6
:102040002575A07C0026401CC0B2A074617888422F
:102050000CD3217C012008F011FF617C002008F0E6
:102060000DFF257607202070268611E0A16B095C04
:10207000E175E07C002804BF012008F0FFFE207D10
:1020800018B9E17D002008F0F9FE257605202070C2
:102090006676BDE8F0812DE9F047AC4C04200025C0
:1020A0002070E5742575A57425746574217C012064
:1020B00008F0E4FE617C002008F0E0FE25860125A2
:1020C000A34865862F4601780029FCD0A14800F07E
:1020D000F7FEE07BA0490322CB1CDFF88082DFF80B
:1020E000809205264FF0060A18B1E07BB8422DD049
:1020F0000FE0DFF860C29CED000ABDEEC00A10EEF2
:10210000100A9CED060ABDEEC00A10EE10CA844506
:1021100003DAE574A163627015E02575A363FEF729
:10212000C3FABDEEC00A10EE100A804507DBFEF7C9
:10213000BBFABDEEC00A10EE100A814501DA6670E6
:1021400001E084F801A0BDE8F047FCE6E574A36374
:10215000FEF7AAFABDEEC00A10EE100A4045EEDC0A
:10216000FEF7A2FABDEEC00A10EE100A4845E8DDFF
:10217000E5E710B5774800F0A3FE74480122C17B63
:10218000002905BF018C32296421C821714B00EE62
:10219000101A418DD3ED060AB8EE400A60EE800AAF
:1021A00000EE101AB8EE400AF4EEC00AF1EE10FA92
:1021B00002DCC17B914202D3BDE810406BE70321F2
:1021C0000170C17B491CC173C07BBDE810400DF09C
:1021D0007FBD5E48417900291EBF491E417170478D
:1021E000C178FF291CBF0179FF2906D04FF00701F4
:1021F00001704FF00001018670478178FF2902BF0E
:1022000003210170704746E72DE9F041554803F07E
:10221000B5FE4E4C00202378062B03D0524908709F
:1022200052490870524942F210720968914228BF1F
:10223000322108D2B1F57A7F28BF0F2103D2642959
:102240002CBF0321012103258022DFF828C14A4E3B
:10225000082B28BFBDE8F081DFE803F015041E4B12
:102260005D607175617900291EBF481E6071BDE80F
:10227000F081E178FF291CBF2179FF2905D04FF0BB
:10228000070121702086BDE8F081A078FF2808BFF3
:10229000257022D1BDE8F0812E4800F011FEE07BD0
:1022A0000121002805BF208C32286420C820294A3B
:1022B00000EE100A608DD2ED060AB8EE400A60EE1C
:1022C000800A00EE100AB8EE400AF4EEC00AF1EE01
:1022D00010FA02DCE07B884202D3BDE8F041DAE686
:1022E0002570E07B401CE073E07BBDE8F0410DF021
:1022F000EFBC237A8B4224BF2072022008D2581CE4
:102300002072DCF80000026030680260BDE8F081F5
:102310002070BDE8F081BDE8F04114E6637A8B429D
:1023200008D2581C6072DCF800000260306802605D
:10233000BDE8F081607204202070BDE8F081BDE846
:10234000F041FEF706BE0620E2E70000105600202E
:10235000AA48002040780020848D0108F0B40500D0
:10236000486B0100DC6900205D4600205F460020CC
:10237000F0490020C8680020186900200B48006858
:10238000016911F0010F08BF70476FF00101016191
:102390000748418819B14188491E41807047054965
:1023A00000200860014805F09FBB0000A87C0020C9
:1023B000E4560020342C0140064880470648004778
:1023C000FEE7FEE7FEE7FEE7FEE7FEE7FEE7FEE7E5
:1023D000FEE7FEE769FF0008890100082DE9F05FCC
:1023E0000546002092469B46884606468146402484
:1023F0001BE0284641464746224600F060F8534617
:102400005A46C01A914110D311461846224600F090
:1024100047F82D1A67EB01084F462246012000219C
:1024200000F03EF817EB00094E41201EA4F1010414
:10243000DFDC484631462A464346BDE8F09F2DE999
:10244000F0410024061B254671F1000605DA01243F
:102450000027D0EB070067EB0101161E73F10006A1
:1024600005DA0027D2EB0702012567EB0303FFF72C
:10247000B5FF86460E4617469C46AC4204D0002562
:10248000D0EB050E65EB010624B10020D2EB00076E
:1024900060EB030C704631463A466346BDE8F08176
:1024A000202A04DB203A00FA02F100207047914014
:1024B000C2F1200320FA03F3194390407047202A09
:1024C00004DB203A21FA02F00021704721FA02F3DE
:1024D000D040C2F120029140084319467047202A9B
:1024E00006DBCB17203A41FA02F043EAE07306E03C
:1024F00041FA02F3D040C2F120029140084319464C
:10250000704740EA01039B0703D009E008C9121F86
:1025100008C0042AFAD203E011F8013B00F8013B9D
:10252000521EF9D27047D2B201E000F8012B491EC9
:10253000FBD270470022F6E710B513460A46044660
:102540001946FFF7F0FF204610BD2DE9FE4F8046EB
:1025500081EA0300C00F0C46009021F0004123F0F7
:102560000045B8EB0200A94105D2404621469046FD
:102570001C460B46024623F00040104347D0270D6F
:10258000C7F30A00C3F30A510290401A0190402891
:102590006BDAC3F3130040F4801B0098924620B11D
:1025A0000023D2EB030A63EB0B0B01985946C0F1F1
:1025B00040025046FFF774FF06460D465046594606
:1025C000019AFFF78CFF10EB08006141002487EAB5
:1025D000115284EAE7731A4340D0009A62B3019A19
:1025E000012A4FEA075215DC001B61EB02014FF094
:1025F000004202EA0752CDE90042001C41F5801179
:1026000032462B4600F050FA03B0BDE8F08F40464A
:102610002146F9E7001B61EB0201001C41F5801324
:1026200000185B412018A2F5001747EB030140EAB0
:10263000D570B6196D4111E06D084FEA360645EACE
:10264000C0754FEA0752001B61EB0201001C41F507
:10265000801149084FEA30000019514132462B469B
:1026600003B0BDE8F04F00F010BA0098012240001E
:102670000023D0EB020263EBE073009821464FEA9F
:10268000E074B8EB000061EB0401E9E783F000437C
:102690005BE781F0004158E72DE9FE4F81EA030432
:1026A00004F0004421F0004100944FF0000B23F0AF
:1026B000004350EA01045ED052EA03045BD0C3F346
:1026C0000A54C1F30A552C44A4F2F3340194A0FB3C
:1026D0000254C1F3130141F48011C3F3130343F413
:1026E000801301FB024400FB034E840A970A44EA6C
:1026F000815447EA8357A4FB076802958D0A05FBBE
:1027000007854FEA932C04FB0C542705029D4FEAE2
:10271000065847EA1637B5EB08056EEB070C870E2F
:10272000920E47EA811742EA8312A7FB0201B6EB39
:102730000B0164EB00042B0D43EA0C335E1844EBF1
:102740001C50DA465146E7FB0201C5F313044FEA79
:102750000B3343EA14534FEA0432019C43EA060365
:10276000A4F10C040294009CCDE900B400F09CF9A3
:1027700003B0BDE8F08F00200146F9E72DE9F04DE8
:1027800081EA030404F0004B21F0004514464FF0A9
:10279000000A23F0004150EA050220D054EA010269
:1027A0001DD0C5F30A570246C5F31303C1F3130046
:1027B000C1F30A5640F4801543F48013A7EB0608D2
:1027C000101BD64608F2FD3873EB050002D308F162
:1027D000010801E092185B41B8F1000F03DA002014
:1027E0000146BDE8F08D00204FF480110646844676
:1027F0000EE0171B73EB050705D3121B63EB0503F4
:1028000006434CEA010C49084FEA300092185B413C
:1028100050EA0107EDD152EA030012D082EA040027
:1028200083EA0501084305D0101BAB4106D2012203
:10283000002306E000224FF0004302E06FF00102A7
:1028400053101AEB06004CEB085110EB0A0041EB59
:102850000B01BDE8F04D00F018B9F0B4CA17CB0F6A
:1028600050405140C61841F100054FEAC37231464D
:1028700028004FF0960303D0B623F0BC00F0D7B881
:1028800030460021F9E70EB5C10F80EAE070084438
:10289000CA07002140F233438DE80E000A460B467A
:1028A00000F002F903B000BD0EB540F233410291D1
:1028B0000021CDE900110A460B4600F0F5F803B0FF
:1028C00000BD70B5C1F30A5201F000450024C1F308
:1028D000130140F2FF3341F480119A4201DA0020E3
:1028E00070BD40F233439A42A2F2334203DC5242BB
:1028F000FFF7E5FD00E090402C43F1D0404270BD71
:10290000C1F30A5210B5C1F3130140F2FF3341F491
:1029100080119A4201DA002010BD40F233439A42FE
:10292000A2F2334203DC5242FFF7C9FD10BD9040D2
:1029300010BD00F0004230F000400AD0C10D01F59A
:102940006071C0F3160042EA0151C208400711430A
:10295000704700200146704730B5041E71F1000435
:1029600004DB4FF00044404264EB0101141E73F19C
:10297000000405DB1C464FF00043524263EB0403A6
:102980008B4208BF824230BD30B5041E71F1000495
:1029900004DB4FF00044404264EB0101141E73F16C
:1029A000000405DB1C464FF00043524263EB040376
:1029B000994208BF904230BD01F0004330B421F08D
:1029C000004150EA010206D00A0DA2F56072C1F37F
:1029D0001301002A02DC30BC00207047440F44EA97
:1029E000C104C100E01830BC00EBC25000F016B8C2
:1029F00030B50B46014600202022012409E021FACF
:102A000002F59D4205D303FA02F5491B04FA02F5CB
:102A10002844151EA2F10102F1DC30BD0029A8BF37
:102A20007047401C490008BF20F00100704710B4F7
:102A3000B0FA80FC00FA0CF050EA010404BF10BCAC
:102A4000704749B1CCF1200421FA04F411FA0CF1D9
:102A500018BF012121430843A3EB0C01CB1D4FEA12
:102A600000614FEA102042BF002010BC704700EB0D
:102A7000C35010440029A4BF10BC7047401C49003B
:102A800008BF20F0010010BC704710B5141E73F190
:102A9000000408DA401C41F1000192185B411A431E
:102AA00001D120F0010010BD2DE9F04D92469B466A
:102AB00011B1B1FA81F202E0B0FA80F22032904610
:102AC000FFF7EEFC04460F4640EA0A0041EA0B011C
:102AD00053465A46084313D0114653EA010019D011
:102AE000C8F140025046FFF7EAFC05460E46504644
:102AF00059464246FFF7D4FC084305D0012004E0C4
:102B000020463946BDE8F08D0020054346EAE076D0
:102B10002C4337430A986305E40AA0EB080000221F
:102B2000FD0A44EA47540A3002D500200146E9E78D
:102B3000010510196941DDE9084500196941BDE841
:102B4000F04DA2E72DE9F04D00231A461B1A8A41E9
:102B500003DB00200146BDE8F08DC1F30A52C1F34A
:102B6000130141F480154FF0000BD10702D100187A
:102B70006D41521E0027044640F2FF11384601EB1A
:102B8000620A3E468046024600204FF48011FFF75D
:102B900096FCC2197141BB1846EB0100B4EB030C63
:102BA00075EB000C04D3E41A65EB000517460E46DE
:102BB000241908F101006D4180463428E3DDF9193C
:102BC00046EB0600091BA84103D24FF0FF32134623
:102BD00001E0002213461BEB070046EB0A51BDE85B
:102BE000F04DFFF752BF00002DE9F041054621F0FE
:102BF00000400C46284309D0C4F30A5040F2334148
:102C0000884205DD28462146BDE8F0812846FBE7DD
:102C100040F2FE31884210DC0CDB4FEA043040EA1F
:102C2000155050EA053105D0104804F00041014329
:102C30000020E9E700200146E6E7A0F233404642E3
:102C4000C6F1400228462146FFF72AFC074688467F
:102C5000284621463246FFF732FC43463A46FFF704
:102C600014FF3246BDE8F041FFF71ABC0000F03F08
:102C7000C1F30A52C1F3130140F2FF3341F4801152
:102C80009A4202DA00200146704740F233439A42EA
:102C9000A2F2334202DC5242FFF711BCFFF700BC44
:102CA0002DE9F047C1F30A5401F00048054600271A
:102CB000C1F3130140F2FF3041F4801684421ADA66
:102CC000B4F57F7F00DC841EA4F213446242924676
:102CD00028463146FFF7F3FB04465246FFF7E0FB78
:102CE00045404E40354301D0012000E0002044EA39
:102CF000000100201BE040F2334084421ADCA4F2C1
:102D0000F33228463146FFF7CBFB0A467840514064
:102D1000084301D0012000E0002040EA020AA4F2AA
:102D20003344624228463146FFF7C9FB5146FFF75C
:102D300075FE03E0A4F2334405FA04F057EA0807ED
:102D400000D04042BDE8F087064C074D06E0E06841
:102D500040F0010394E8070098471034AC42F6D3E2
:102D6000FDF716FAECCF02081CD0020870B58C18DB
:102D700010F8015B15F0070301D110F8013B2A118F
:102D800006D110F8012B03E010F8016B01F8016B7C
:102D90005B1EF9D12B0705D40023521E0DD401F878
:102DA000013BFAE710F8013BCB1A921C03E013F841
:102DB000015B01F8015B521EF9D5A142D8D3002076
:102DC00070BD40F2010CC1F2000C604740F2B91C2A
:102DD000C1F2000C604740F6C13CC1F2000C6047F4
:102DE00040F65D3CC1F2000C604770B504460068D7
:102DF000816801F0030101292BD1016811F0010F55
:102E000027D0816801F00D01012913D1816841F0BB
:102E10000201816021680320086003F079F805460B
:102E20002068806810F0010F13D003F071F8401B88
:102E3000022809D9206C40F010002064606C40F03A
:102E400001006064012070BD2068806810F0010FEF
:102E5000EBD1002070BD70B504460068816801F0B8
:102E60000301012903D1016811F0010F23D1816809
:102E70006FF39E1181B9816841F00101816003F017
:102E800047F805462068006810F0010F13D103F0E1
:102E90003FF8401B022809D9206C40F01000206444
:102EA000606C40F001006064012070BD2068006823
:102EB00010F0010FEBD0002070BD70470000000043
:102EC0002DE9F04104462DED068B84B0006BFFF731
:102ED000EBFC9FED8F1B53EC112BFFF7DDFB9FED00
:102EE0008E1B53EC112BFFF7D7FBFFF765FD08EEA8
:102EF000100A8B4890ED000ADFED8A0A20EE200AC6
:102F0000DFED890A894D20EE200A85ED080AD4E913
:102F10000201FFF7A2FC00EE900A80EE880A10EE94
:102F2000100AFFF706FDCDE90001D4E90401FFF71F
:102F300094FC00EE900A80EE880A10EE100AFFF76B
:102F4000F8FCCDE902019DE88301FFF735FD064657
:102F500038464146FFF730FD0AEE100AD4E9080171
:102F600009EE906AFFF779FC00EE900A80EE880A7D
:102F700010EE100AFFF7DDFCCDE90001D4E90A01EB
:102F8000FFF76BFC00EE900A80EE880A10EE100A44
:102F9000FFF7CFFCCDE902019DE88301FFF70CFDAF
:102FA000064638464146FFF707FD08EE906A09EEEF
:102FB000100A95ED081A9FED5E8AB0EE690AF0EEF0
:102FC0004A0AF0EE481AF0EE40AA0FF01BFD10EE90
:102FD000100A10EE906AFFF7ACFC074688463046B0
:102FE000FFF7A7FCCDE900789DED000B51EC100B2D
:102FF000FFF7E2FC09EE900A95ED081AF0EE481A88
:10300000F0EE4A0AB0EE6A0A0FF0FCFC10EE100A6D
:1030100010EE906AFFF78DFC3046FFF78AFCCDE991
:1030200002019DED020B51EC100BFFF7C5FC29EEE0
:10303000A91A00EE100A00EE001A11EE100AFFF7AE
:1030400078FC41EC100B10F033FA9FED3BAB51ECE8
:10305000100B53EC1A2BFFF71FFBFFF7ADFCB0EE84
:10306000680A206095ED081AF0EE481AF0EE490A59
:10307000F0EE409A0FF0C6FC10EE100A10EE906AC7
:10308000FFF757FC074688463046FFF752FCCDE96C
:1030900000789DED000B51EC100BFFF78DFC08EE56
:1030A000900A95ED081AF0EE481AF0EE490AB0EED3
:1030B000690A0FF0A7FC10EE100A10EE905AFFF705
:1030C00038FC2846FFF735FCCDE902019DED020BE7
:1030D00051EC100BFFF770FC68EEA80A00EE100A26
:1030E00040EE000A10EE900AFFF723FC41EC100BB3
:1030F00010F0DEF953EC1A2B51EC100BFFF7CCFA61
:10310000FFF75AFCA06104B0BDEC068BBDE8F0816E
:1031100000000000C0FFDF40000000000000E03FB2
:103120009849002000007A4400008039A848002017
:10313000000000000000000000000000000000404F
:103140002DE9F04FA9482DED028B91B0416941F076
:1031500001014161416901F001010F91416941F0B3
:10316000020141614069002400F00200CDE90E40F7
:10317000DFF87CB20C940D940094019402940394B3
:1031800004944FF0A0400594CBF800004FF4803039
:10319000CBE90104CBF810408BF819408BF82040A4
:1031A0000126CBF81C6080114FF4707ACBF80C40EC
:1031B000CBE90AA08BF830604FF00408CBF81480FC
:1031C0008BF818405846CBF8344001F0C1FF062078
:1031D000CDE90C0400020E900CA9584601F06EFCDB
:1031E000F005CDE9066040F6CD70CDE9094032200A
:1031F0000B9008968DF8244006A9584601F00EFD64
:10320000002818BF01F04EFB03270096CDE90167A7
:10321000DFF8E091CDE9034699ED000AB6EE008AA9
:10322000694620EE080A7248BCEEC00A8DED050A18
:1032300001F0B0FD714D704828600002C5E901043D
:103240002C616C7685F82040EE61EC6085F83040AA
:10325000C5F814802C764FF480686C63C5E90AA821
:10326000284601F075FF4FF40000CDE9066040F6F6
:10327000CD700A9032200B9008978DF8244006A953
:10328000284601F0CBFC002818BF01F00BFB0320FF
:103290000097CDE90160CDE9034699ED000A694642
:1032A000564820EE080ABCEEC00A8DED050A01F072
:1032B00071FD4F4802F054F9504802F051F90021D5
:1032C0004B4801F0A9FB00214C4801F0A5FBDBF8BD
:1032D000001008200860296808604FF0A046B06818
:1032E00040F00500B060D6F8080140F00500C6F8CF
:1032F0000801444F42484FF44059C7E90004802078
:10330000C7E902404000386180004FF02008C7F84C
:103310001C90C7E90508384602F0B6FB3A48CBF8DE
:103320003870DFF8E8A0C7F824B04068CAF80C008D
:103330003748CAF810003748CAF81400374FDFF88A
:10334000D8B08020C7E900B4C7E902404000386126
:103350008000C7F81C90C7E90508384602F094FBC6
:103360002948AF637D620BF1040140680860091DC4
:103370002B480860091D2B480860F06820F0020007
:10338000F060F06840F00300F060D6F80C0120F027
:103390000200C6F80C01D6F80C0140F00300C6F894
:1033A0000C01DAF8080040F00200CAF80800DAF868
:1033B000080040F00400CAF80800DAF8080040F0FD
:1033C0000100CAF80800DBF8000040F00100CBF86B
:1033D0000000002211460B2002F048FE0B2002F0F4
:1033E00036FE11B0BDEC028BBDE8F08F001002403C
:1033F000C86800209C490020000100501869002086
:1034000008000240246C0020A04800200000024078
:1034100040000050E858002008040240686C00207A
:10342000400100505857002030B51F4885B0C16991
:1034300041F01001C161C0691D4C00F01000039003
:103440001A48206063200025C4E901051949256157
:10345000A56109686420B1FBF0F017496561A1FB23
:103460000010C0F38F10401EE060204604F038FAD0
:10347000009569462046029504F0E8F9204604F0DC
:10348000BFFA204604F0F4FA00221146362002F07A
:10349000EDFD362002F0DBFD2068C16841F001013E
:1034A000C16005B030BD00000010024000100040B7
:1034B000A87C0020884700201F85EB51FEE7000014
:1034C000042822DD124A202802D021280CD01CE03A
:1034D000CB78086863F31F60106008791071487931
:1034E00050718879907110E0107808701088000A87
:1034F00048701068000C88701068000EC870107951
:1035000008715079487190798871002070470000E7
:10351000704700200020704710B50022044905487C
:103520000DF07BFC044903480DF071FC002010BD38
:10353000E0770020D06D0020A077002070B50D4608
:10354000064601460A480DF062FC09480DF03FFCB2
:1035500028680024002808D9305D01210BF076F896
:10356000601C84B22868A042F6D8002070BD00001C
:10357000D06D00200A46094910B5D1F8B812D1F82B
:10358000141200291CBF012010BD014603480DF094
:1035900044FCBDE8104001480DF0A4BCD06D0020F3
:1035A000F0B49FED502ADFED501A00204F4E072750
:1035B0009FED4F4AC6F8C071306086ED894AF7EE3C
:1035C000003AC6ED8A3A86ED8B2AC6ED8D1A86ED55
:1035D0008C2A484AC6ED8E1A9FED470AD2E908C3E5
:1035E00006EB001101F5E2710428ACBFD6ED8A0AA2
:1035F000D6ED890AC1ED000A81ED010AC1E902C3D5
:10360000401C0628ECDBD2E90A54DFED3C4ADFED32
:103610003C5A9FED3C5ADFED3C2A0021C1EBC10032
:1036200000EB400006EBC000F0EE630A021DB0EEB6
:10363000601A002904BFF0EE440AB0EE641A05D007
:10364000012904BFF0EE650AB0EE451A5FF00000F4
:1036500002EB001311B1012941D00AE0022802DA7D
:10366000B0EE603A01E0B0EE413A02EB800C8CED36
:10367000183A052804BF0129C2ED1D2A02EB800C6F
:1036800000F101008CED1E2ACCED241A9CED183AB5
:10369000062883ED003A83ED010AC3E90254D7DB23
:1036A000491C0229BADB86ED6D5A86ED6E2AC6EDFD
:1036B0006F1AC6F8C07186ED8F0A86ED900A002059
:1036C00006EB0011D6ED6D0A401CC1ED550A81EDE7
:1036D000560AC1E957540628F2DBF0BC70470328AC
:1036E000C1DABDE70BAACA29687089309478002036
:1036F0000000C842304900200000000000007A4469
:1037000000401C460050C3478096184B0000000044
:103710002DE9F0432DED028B85B0B0EE408AF0EE3E
:10372000608AFCF7C1FF7C4ED6ED000AF8EE600A15
:10373000B4EE600AF1EE10FA1CBF0025774F13D0EB
:1037400007EBC524FCF7B0FFD4ED000AF8EE600AE1
:10375000B4EE600AF1EE10FA41D1210042D04FF4EC
:1037600011726D48FEF7CDFE6D486E4C007878B34F
:1037700018EE100A18EE905AFFF7DBF80746884655
:103780002846FFF7D6F8CDE90078CDE9020194ED9F
:10379000143B94ED122B9DED021B9DED000B0FF0E1
:1037A000E1F88DED000B8DED021B10EE100A10EE0E
:1037B000901A11EE107A11EE908AFFF7FDF8054687
:1037C00038464146FFF7F8F808EE105A08EE900A1E
:1037D000306800287CD05448007830B126E06D1C59
:1037E000072DADDBFFF7DCFEBEE7504D287850BB60
:1037F00018EE100A18EE907AFFF79BF8804689467B
:103800003846FFF796F8CDE90201CDE900899DED34
:10381000021B9DED000B0FF07FFB9FED451B51EC54
:10382000100B53EC112BFFF797F80CD205B0F0EE0C
:10383000680AB0EE480ABDEC028B06F5E270BDE8FE
:10384000F04300F0B1BA3C4901200A7882429CBFA3
:103850002A78052A2FD80878B0EE480AF0EE680AD0
:10386000C0EBC00000EB4000297806EBC000001D53
:10387000062930D229782A7800EB011100EB820268
:1038800092ED181A84ED041A2A7800EB8202D2ED28
:103890001E1AC4ED051A2A7800EB820090ED242A46
:1038A00084ED062AD1EC042A05B0BDEC028BBDE8FC
:1038B000F04300F0E5B80978814226D11F492A7803
:1038C000B0EE480AF0EE680A06F5AA70895600E0E4
:1038D0001BE0002908DA94ED080AD4ED090A05B0C6
:1038E000BDEC028BBDE8F08300EB011190ED1A2ACC
:1038F000D0ED191A90ED181AD1EC042A05B0BDECE0
:10390000028BBDE8F04300F0BBB8B0EE480AF0EE21
:10391000680AE4E7000000009478002000C0030873
:10392000084A00203049002020560020215600205F
:1039300000000000000059401F560020108D0108B3
:1039400030B5184B184903F11C0085B00A68D0F84F
:103950000010002453F82400B2FBF0F0884219D183
:10396000FF2C1BD000F0A2FF0020009001900F4818
:10397000694600EBC42002900120039001A802F0E8
:10398000D5F80098002808BF012500F08DFF05B08C
:10399000284630BD601CC4B2072CDBD305B0002024
:1039A00030BD000078780020E449002000C0030802
:1039B00070B5184B184903F11C0500200A682968E6
:1039C00053F820C0B2FBFCFC8C451CD1FF281ED054
:1039D000C60200F06BFF0024E01704EB907020F0AB
:1039E000030000234259301900F1006101F57031E4
:1039F000022002F00DF9241DB4F5117FECD300F084
:103A000053FF012070BD401CC0B20728D8D300204E
:103A100070BD000078780020E449002070B5FCF704
:103A200043FE1548D0ED000AF8EE600AB4EE600AD5
:103A3000F1EE10FA1ABF0025104E70BD06EBC5243A
:103A4000FCF732FED4ED000AF8EE600AB4EE600A2C
:103A5000F1EE10FA08D1210009D0BDE870404FF412
:103A600011720548FEF74DBD6D1C072DE6DBBDE864
:103A70007040FFF795BD00009478002000C0030857
:103A8000F0B52DED0E8B95B0F0EE638AB0EE449A52
:103A9000F0EE629AB0EE43CAF0EE42EAB0EE618A0E
:103AA000F0EE41DAF0EE40CAB0EE60DAFCF7FCFD71
:103AB000B54C10EE105A18EE100A84ED070AFEF706
:103AC00038FF41EC1A0B2846FEF733FF9FEDB0BBE1
:103AD00053EC1B2BFEF7E0FD53EC1A2BFEF7DCFD3D
:103AE00041EC100B53EC102B9FEDAB0B51EC100B7A
:103AF000FEF744FEFEF760FF0EEE100A9FEDA88A67
:103B00001EEE900A84ED0C8A84ED0DEAFEF711FF9B
:103B100041EC1A0B2846FEF70CFF53EC1B2BFEF76B
:103B2000BBFD53EC1A2BFEF7B7FDFEF745FF00EE89
:103B3000900A84ED0E8AC4ED0F0A3DEE880A78EEF5
:103B4000200AF0EE4E1AB0EE481A30EE08AA70EED7
:103B50008EAA0EF057FFF0EE6A1AB0EE4A1A0EF077
:103B600040FF84ED100AC4ED110A19EE900A1CEE14
:103B7000105AFEF7DEFE06460F462846FEF7D9FE2F
:103B8000CDE900679DED000B51EC100BFEF714FF23
:103B9000206018EE900A19EE105AFEF7CAFE06468B
:103BA0000F462846FEF7C5FECDE900679DED000BE8
:103BB00051EC100BFEF700FF6060D4E91006FEF731
:103BC000B8FE05460F463046FEF7B3FECDE9005776
:103BD0009DED000B51EC100BFEF7EEFEA0601CEE0D
:103BE000900A1DEE105AFEF7A4FE06460F46284620
:103BF000FEF79FFECDE900679DED000B51EC100B29
:103C0000FEF7DAFEF0EE491AB0EE681AF0EE4D0A51
:103C1000B0EE6C0AE0600EF0E4FE10EE100A10EE5A
:103C2000905AFEF786FE07460E462846FEF781FEAE
:103C3000334605460E46D4E916013A46FEF726FD00
:103C4000CDE90801D4E918012A463346FEF71EFDE6
:103C5000CDE90A011CEE900A1DEE105AFEF769FE2E
:103C600006460F462846FEF764FECDE90E0119EE22
:103C7000900A1CEE105ACDE90C67FEF75AFE064674
:103C80000F462846FEF755FECDE90201CDE9006753
:103C90009DED023B9DED002B94ED181B94ED160B52
:103CA0000EF0FEFD8DED040B8DED061B18EE900A57
:103CB00019EE105AFEF73DFE06460F462846FEF75F
:103CC00038FECDE90201CDE900679DED023B9DED97
:103CD000002B94ED181B94ED160B0EF0E1FD8DED0D
:103CE000100B8DED121BDDE9040110EE102A10EE11
:103CF000903AFEF7CBFCCDE90001DDE90601DDE9F4
:103D00001223FEF7C3FCCDE90201D4E91006FEF749
:103D100010FE04460D463046FEF70BFECDE90601C7
:103D2000CDE904459DED023B9DED002B9DED061B6D
:103D30009DED040B0EF016FE9DED0E3B9DED0C2B44
:103D40000EF010FE9DED0A3B9DED082B0EF0A8FD38
:103D50008DED000B8DED021B10EE100A10EE901A87
:103D600011EE105A11EE906AFEF726FE0446284620
:103D70003146FEF721FE15B000EE104ABDEC0E8B69
:103D800000EE900AF0BD0000304900200000000065
:103D9000182D4454FB211940000000000000F03FA2
:103DA00000000000000000002DE9F04305462DED65
:103DB000088B85B0F0EE408AB0EE60AA8B488A4945
:103DC00002788B4C89560029BFBF94ED080AD4EDC8
:103DD000090A05B0BDEC088BB8BFBDE8F08305EB60
:103DE0000116017804292CBF95ED190A95ED180AE2
:103DF00084ED040A017804292CBF95ED1B0A95ED8A
:103E00001A0A84ED050A007804282CBF95ED1D0AD6
:103E100095ED1C0A84ED060AFCF746FC84ED070AC2
:103E200010EE107A6069FEF784FD41EC1B0B3846FA
:103E3000FEF77FFD9FED709B53EC192BFEF72CFCDA
:103E400053EC1B2BFEF728FC41EC100B53EC102B12
:103E50009FED6B0B51EC100BFEF790FCFEF7ACFDE9
:103E60000AEE900A9FED688A84ED0C8AC4ED0DAAD3
:103E7000A069FEF75EFD41EC1B0B3846FEF759FDCD
:103E800053EC192BFEF708FC53EC1B2BFEF704FC3C
:103E9000FEF792FD00EE900A84ED0E8AC4ED0F0A43
:103EA00094ED040A78EE200AF0EE6A1A30EE080A61
:103EB000B0EE481A70EEAABA30EE08BA0EF0A2FDC3
:103EC000F0EE6B1AB0EE4B1A0EF08BFD84ED100A7B
:103ED000C4ED110AD6E90008FEF72BFD0746894616
:103EE0004046FEF726FDCDE900799DED000B51EC33
:103EF000100BFEF761FD2060D6E90209FEF719FDFF
:103F0000074688464846FEF714FDCDE900789DED4A
:103F1000000B51EC100BFEF74FFD6060D4E9100967
:103F2000FEF707FD074688464846FEF702FDCDE945
:103F300000789DED000B51EC100BFEF73DFDA060ED
:103F400018EE900A1AEE107AFEF7F3FC80468946C6
:103F50003846FEF7EEFCCDE900899DED000B51ECF3
:103F6000100BFEF729FDE060E86FA061FEF7E1FCB1
:103F700041EC1B0BE069FEF7DCFC53EC192BFEF760
:103F80008BFB53EC1B2BFEF787FBFEF715FD00EEBA
:103F9000900A84ED0E8AC4ED0F0A96ED031A96ED91
:103FA000020AD6ED011A71EE600A30EE480A96ED6B
:103FB000001A71EEE01A31EE401A38EEC00A7AEEBD
:103FC000600A0EF00EFDF0EE601AB0EE401AD4ED6D
:103FD000110A94ED100A05B0BDEC088BBDE8F04362
:103FE0000EF010BD00000000108D010820560020CA
:103FF0003049002000000000182D4454FB211940D6
:10400000000000000000F03F0000000070470000CA
:10401000014801F0D2BC0000046D0020014801F00D
:10402000CCBC0000486D0020014801F0C6BC000077
:104030008C6D0020014801F0C0BC0000686C0020BD
:10404000014801F0BABC0000C06C002010B5424825
:10405000424C84B0007838B114230A21042201288C
:1040600018D0022828D039E03D48A06147F23050EE
:10407000E06140F6B83020624FF4967060623C20F8
:10408000A0621E20E0620F2020630C2060630620E7
:10409000A06323E03348A06144F62060E0614FF460
:1040A000FA602062C82060622820C4E90A03082060
:1040B000A263C4E90C1011E04CF25030A06142F24E
:1040C0001070E0614FF47A7020626420C4E9090343
:1040D0000520C4E90B100220C4E90D202248A16983
:1040E0000160E1694160216A8160616AC160A16A21
:1040F0000161E16A4161216B8161FCF7F6FA1C49BB
:104100001A480860084601F06EFB002818BF00F04E
:10411000C9FB242000900020024601906946144803
:1041200001F03AFB002818BF00F0BCFB002110484A
:1041300001F0C8FB0022238811460D4801F0B2FBB4
:104140002388002210210A4801F0ACFB40F2936062
:10415000E080608004B010BD57460020A8490020D0
:10416000F0490200A0860100787800200074004029
:10417000AC6C00200148406970470000A84900204D
:1041800070470000134A124912884A80124A128866
:104190008A8080B1012819D11004000C4EF6EE621D
:1041A00002D0498821B10DE0488890420CD10DE041
:1041B00090420BD108E04888002808BF70471004DF
:1041C000000C01D0AB2070474020704700207047A2
:1041D00024570020007003080078030810B584B04D
:1041E00000200390154C00900121CDE901412046AB
:1041F00000F066FA38B903A9684601F097FC002878
:104200001CBF04B010BD002213462146012001F05E
:10421000FFFC00281CBF04B010BD0948019000F04D
:104220004FFA38B903A9684601F080FC00281CBF8A
:1042300004B010BD002004B010BD000000700308E1
:10424000007803082DE9F04F85B0DF4F0024039478
:104250003A88661EDD4D288801210094CDE9017160
:10426000DFF86C83DFF86CE34FF6FF7A002A00F08A
:10427000F480A2F6EE62B2F5604243D0A2F5885116
:1042800011390AD0FFF7AAFF00281CBF05B0BDE80E
:10429000F08F002005B0BDE8F08F78B1A0F56E4139
:1042A000EE3906D0FFF79AFF0028F2D005B0BDE83E
:1042B000F08F384600F004FAC0B90EE0384600F03E
:1042C000FFF90028E5D103A9684601F02FFC00287A
:1042D0001CBF05B0BDE8F08FDBE703A9684601F01D
:1042E00025FC00281CBF05B0BDE8F08F0022134656
:1042F0002946012001F08CFC00281CBF05B0BDE858
:10430000F08FC6E7002808BFF24608D050457DD19F
:104310002846019500F0D4F9002878D180E0F8888B
:1043200038F81450A84208BF26B2B44251D0002039
:10433000FFF728FFAB281FD0A74907EBC02201EBEE
:10434000C020911C814238BFB2F1004F80F027811C
:10435000121A521ED31702EB93720121921052428D
:104360008A4236DB0388AB421CBF001F491CF7D1D1
:1043700030F8021C9748018038F814B0BAF8009061
:104380000120FFF7FFFEAB2804BF05B0BDE8F08FAA
:1043900007EBC025914901EBC020854274D2296802
:1043A000B1F1FF3F03D02D1D8542F8D3BDE04A4651
:1043B00000232946012001F02BFC28B95A4600238E
:1043C000A91C012001F024FC00281CBF05B0BDE899
:1043D000F08F601C84B21E2CA1D3002213463946F4
:1043E000012001F015FC00281CBF05B0BDE8F08FCE
:1043F0000020009075480121CDE9010100F060F92D
:1044000000287FF446AF03A9684601E01DE010E0F4
:1044100001F08CFB00281CBF05B0BDE8F08F38E729
:1044200003A9684601F082FB00281CBF05B0BDE867
:10443000F08F002213463946012001F0E9FB0028E5
:104440001CBF05B0BDE8F08F23E7FFF7C7FE0028CB
:104450003FF41FAF05B0BDE8F08FB0B1504518BFB5
:10446000DFF87CA119D12846019500F029F9002830
:104470007FF40FAF03A9684601F058FB00281CBF6A
:1044800005B0BDE8F08F04E74FE0FFF7A7FE002876
:104490001CBF05B0BDE8F08FFBE6BAF8000038F8A5
:1044A0001450A84208BF26B2B44254D00020FFF7EF
:1044B00069FEAB281ED0484907EBC02201EBC020A3
:1044C000911C814238BFB2F1004F74D2121A521EB1
:1044D000D31702EB93720121921052428A423ADBC7
:1044E0000388AB421CBF001F491CF7D130F8021CE7
:1044F00038480180374838F814B0B0F800900120EF
:10450000FFF740FEAB2804BF05B0BDE8F08F07EB16
:10451000C025324901EBC020854206D22968B1F19D
:10452000FF3F06D02D1D8542F8D305B08020BDE8A1
:10453000F08F4A4600232946012001F069FB28B983
:104540005A460023A91C012001F062FB00281CBF71
:1045500005B0BDE8F08F601C84B21E2C9DD30022F4
:1045600013461A49012001F053FB00281CBF05B077
:10457000BDE8F08F002000900121CDE9017138469F
:1045800000F09EF800287FF484AE03A9684601F08D
:10459000CDFA00283FF47DAE05B0BDE8F08F814232
:1045A000BFF417AF0288AA423FF4E2AE001F884270
:1045B000F8D80EE7FFE78142CDD20288AA4295D013
:1045C000001F8842F9D8C6E7007003080078030886
:1045D0003E8C010824570020FE770308FF7703086C
:1045E000067803082DE9F04104460E4601251A4FCE
:1045F0000020FFF7C7FDAB2808BFBDE8F08107EB3F
:10460000C023164901EBC022981C904238BFB3F179
:10461000004F18D2981A411EC81701EB90708010F5
:104620004FF0010C404260450ADB1188A1421CBFDB
:10463000121F0CF1010CF6D132F8020C308000256B
:104640002846BDE8F0819042FAD21188A142F3D009
:10465000121F8242F9D8F3E700700308FE770308BF
:1046600070B506460D46144C0120FFF78BFDAB28B4
:1046700008BF70BD04EBC024104901EBC020844288
:1046800006D22168B1F1FF3F04D0241D8442F8D343
:10469000802070BD2A4600232146012001F0B8FA8F
:1046A000002818BF70BD3246A11CBDE87040002331
:1046B000012001F0ADBA000000700308FF77030885
:1046C000144B10B401214FF6FF72984238BFB0F17D
:1046D000004F14D2104C0123A4EB000C4FEAEC74F1
:1046E0000CEB947CB3EBAC0F06DC0488944204BF63
:1046F000001D5B1CF6D0002110BC08467047074B1C
:104700009842F9D8B0F800C09445F4D1001D984201
:10471000F8D9F1E7FF7F030802800308FE7F030852
:104720002DE9F04F85B089468046FFF799FF802834
:104730001CBF05B0BDE8F08F544F002528460097F8
:104740000495FFF71FFD524E4FF0AB0A402808D0EA
:10475000002807BF00963E46504605B018BFBDE88A
:10476000F08F4EF6EE6200230120009901F050FA1E
:1047700000281CBF05B0BDE8F08F49464046FFF752
:104780006FFF00280EBFDFF80C9105B0BDE8F08F79
:1047900039F81540444554D00020FFF7F3FCAB280E
:1047A0001ED03D4907EBC02201EBC021901C88427E
:1047B00038BFB2F1004F5FD2521A531EDA1703EB23
:1047C000927201209210524282423ADB0B88A3423D
:1047D0001CBF401C091FF7D131F8021C2F48018073
:1047E0002E4839F815B0B0F800A00120FFF7CAFC38
:1047F000AB2804BF05B0BDE8F08F07EBC024284903
:1048000001EBC020844206D22168B1F1FF3F06D0FF
:10481000241D8442F8D305B08020BDE8F08F5246B5
:1048200000232146012001F0F3F928B95A4600235C
:10483000A11C012001F0ECF900281CBF05B0BDE867
:10484000F08F681C85B21E2DA2D30020CDE9010691
:104850000120039004A901A801F068F900281CBFF9
:1048600005B0BDE8F08F002213460120009901F049
:10487000CFF905B0BDE8F08F921C8A42E1D20888DA
:10488000A042A9D0091F9142F9D8DAE700700308C5
:10489000007803083E8C0108FE77030824570020A7
:1048A000FF77030872B6FEE701F0A8B901F0F6B988
:1048B00070B5054601F02CFB1D4C0646E06810F073
:1048C000010F0ED0B5F1FF3F07D025B101F020FB5D
:1048D000801BA84201D9032070BDE06810F0010FD1
:1048E000F0D1E06810F0200F1CBF2020E060E068ED
:1048F00010F0100F02BFE06810F0040070BD00213E
:10490000E06810F0100F0B4804D0C16941F00201BB
:10491000C1611021E26812F0040F05D0C26942F0B3
:104920000102C26141F00401E160012070BD00009C
:104930000020024020780020F0B4144C4FF0000C0E
:10494000A67E002E88BF256B1DD900BF0CEB4C0442
:1049500005EB44042778874201BF67788F42A4782B
:1049600094420AD10A4800EBCC00D0E90010C3E918
:104970000010F0BC4FF0010070470CF1010C0CF07E
:10498000FF0CB445E2D3F0BC00207047F84A002089
:104990001C7B002000487047947800201648B7EE32
:1049A000000A006A002810DD10F0010FF2EE040A80
:1049B00018BFB0EE600A401008BF704720EE200A12
:1049C000401E20EE200AF9D1704741420029D8BF8D
:1049D000704710F0010FDFED090A18BFB0EE600A52
:1049E000481008BF704700BF20EE200A401E20EE8E
:1049F000200AF9D170470000EC550020CDCCCC3D09
:104A00000149085670470000108D01080148408D8B
:104A100070470000A05600202DE9F041044690F8B0
:104A20003C000D46012804BF0220BDE8F0814FF094
:104A3000010884F83C802046FEF7D7F906004FF0C5
:104A4000000736D1C4F840802068816821F0804199
:104A50008160012D04D12068816841F0804181602E
:104A60002068816841F00041816001F051FA0546FB
:104A70002068806810F0004F15D000BF01F048FAA0
:104A8000401B0A280AD9206C20F0020040F01000D8
:104A9000206484F83C700120BDE8F08120688068C3
:104AA00010F0004FEAD1206C20F0020040F001002D
:104AB000206484F83C703046BDE8F08170B4002377
:104AC0000268DFF844C195B01E46B2F1A04F08BF9E
:104AD000CDF800C013D0624504BF4FF0A04400944D
:104AE0000DD04A4C4A4DA24208BF009507D0AA42B9
:104AF0000FBF0094012015B070BC18BF704790F82C
:104B00003C40012C01BF022015B070BC704701244D
:104B100080F83C40946814F0040F04D1009CA46811
:104B200014F0040F0AD0016C41F02001016401234C
:104B300080F83C6015B0184670BC7047B2F1A04FC9
:104B40001ABF6245334A344AD1F800C0BCF1000FA5
:104B500037D0D2F808C090F830402CF4604C4CEAC2
:104B6000443C4C684CEA040CC2F808C0D0F800C0C1
:104B7000DCF8084004F00304012C04D1DCF800C088
:104B80001CF0010FD4D1DDF800C0DCF808C00CF037
:104B9000030CBCF1010F06D1DDF800C0DCF800C049
:104BA0001CF0010FC4D1D1F800C089684CEA0101A2
:104BB000D2F808C02CF01F0C2CF4706C41EA0C01E8
:104BC0001FE0916821F4604191600168D1F808C04C
:104BD0000CF0030CBCF1010F03D1096811F0010FB7
:104BE000A6D10099896801F00301012904D1009937
:104BF000096811F0010F9BD1916821F01F0121F488
:104C00007061916094E700000001005000040050C2
:104C100000050050000700500003005090F83C20B1
:104C20004FF0000C012A04BF022070472DE9F0016B
:104C3000012480F83C400268936813F00C0F0BD0FD
:104C4000016C41F020010164A446002180F83C1071
:104C5000BDE8F001604670470E68D368012E36D07B
:104C6000182535EA03030B694FF0040708BF9B00C2
:104C700009D0D2F80C80C8F3C108C8F1000807EBCE
:104C8000480823FA08F3D2F80C8035EA08054D6984
:104C900008BFAD0008D0D2F80C80C8F3C108C8F135
:104CA000000807EB4807FD40022E4E683BD0002E5F
:104CB00057D0966A45EA034306F0FF2633439362D2
:104CC0000268D2F8A4300D7AAC40234352E023F0BE
:104CD00077530C7A23F0804343EA84634C68234380
:104CE000D36002680B8AD468D568C4F3C104640039
:104CF000A3404C69C5F3C1056D00AC40156A44EA98
:104D0000034305F0F0252B431362036880221A60E9
:104D1000097B012901684A6814BF22F0800242F031
:104D200080024A6091E76EB1566A45EA034306F095
:104D3000FF26334353620268D2F8A0300D7AAC40AC
:104D4000234308E0536A03F0FF2353620268D2F85A
:104D5000A0306FF31203C2F8A0304FF480731A46EC
:104D60000DE0936A03F0FF2393620268D2F8A43047
:104D70006FF31203C2F8A4304FF400731A460468AC
:104D80002360097B012901684B680CBF1A4323EAA1
:104D90000202C6E72DE9F00199B04FF0000CCDF802
:104DA00008C090F83C206446012A01BF022019B0D7
:104DB000BDE8F0017047012780F83C7002689368F5
:104DC00013F0040F40F05D814B681F25052B0CD2BA
:104DD000166B03EB43035B009D4026EA05050E6856
:104DE00006FA03F32B4313632CE00A2B0DD2566B08
:104DF0005B1F03EB43035B009D4026EA05050E683D
:104E000006FA03F32B4353631CE00F2B0DD2966B72
:104E10000A3B03EB43035B009D4026EA05050E6851
:104E200006FA03F32B4393630CE0D66B0F3B03EBC3
:104E300043035B009D4026EA05050E6806FA03F36E
:104E40002B43D363026893684FF0070513F00C0FF0
:104E500064D10B680A2B0ED396690A3B03EB43031C
:104E600005FA03F826EA0806D1F8088008FA03F3E1
:104E7000334393610CE0566903EB430305FA03F8EF
:104E800026EA0806D1F8088008FA03F33343536191
:104E900002684B69D668D1F81080C6F3C106760067
:104EA000B340A14EB8F1010F3FD0B8F1020F49D085
:104EB000B8F1030F53D0B8F1040F5DD0136E0E7824
:104EC00003F0F843B3EB866F03D1136E23F0004376
:104ED00013660268536E0E7803F0F843B3EB866FE7
:104EE00003D1536E23F0004353660268936E0E782D
:104EF00003F0F843B3EB866F03D1936E23F00043C6
:104F000093660268D36E0E7803F0F843B3EB866FB6
:104F100004BFD36E23F0004300D1D36602689368C8
:104F200003F00303012B37D132E0D2F8608008EAA6
:104F3000060691F8008043EA8863334343F0004358
:104F40001366EBE7D2F8648008EA060691F8008061
:104F500043EA8863334343F000435366DEE7D2F805
:104F6000688008EA060691F8008043EA88633343C4
:104F700043F000439366D1E7D2F86C8008EA060656
:104F800091F8008043EA8863334343F00043C4E769
:104F9000136813F0010F7AD1CB68012BD2F8B0302F
:104FA00006D00D7807FA05F5AB43C2F8B03022E021
:104FB0000E7807FA06F63343C2F8B0300A68036881
:104FC0000A2A0CD39E69093A02EB4202954026EA6E
:104FD00005058E6806FA02F22A439A610BE05E69C3
:104FE000521C02EB4202954026EA05058E6806FA3D
:104FF00002F22A435A6103684C4DB3F1A04F16BF29
:10500000AB424B4A4B4A0968102908D011290BD0F2
:10501000122904BF966816F4800F09D037E096680D
:1050200016F4000F33D103E0966816F0807F2ED17E
:10503000B3F1A04F0FD0AB4204BF4FF0A045049591
:105040000AD03D4D3D4EAB4208BF049604D0B3425A
:1050500018BF049400D104959D6805F00305012D47
:1050600003D11D6815F0010F0BD1049DB5B1AD68DA
:1050700005F00305012D11D1049D2D6815F0010FD8
:105080000CD0016C41F0200101644FF0010C80F85C
:105090003C4019B06046BDE8F0017047102909D0C6
:1050A000112933D0122904BF916841F48001EED157
:1050B0009160ECE7B3F1A04FE9D1916841F40001B0
:1050C00091601F491F4A0968B1FBF2F101EB8101B0
:1050D000490002910091DAD0B1F1004F1ED20029AF
:1050E000D8BF002105DD11F0010102D0029A521E45
:1050F0000292009A491C521C9142C8DA029B891CF8
:105100005B1E5B1E02939142F8DBC0E7B3F1A04F38
:1051100004BF916841F08071B9D1C9E70299491E75
:105120000291FCD1B3E7000000F0FF8300010050C2
:10513000000300500007005000040050000500501C
:105140008847002040420F000068006C7047000054
:1051500070B596B04FF0000604003546029602BFC7
:10516000012016B070BD206C10F0100F206C03D021
:1051700010F0100F69D06DE000284BD16564E56434
:10518000A56484F83C50204600F03CF92068806813
:1051900010F0805F3ED12046FDF727FE0646206CCA
:1051A00010F0100F08BF002E34D1206C20F488506E
:1051B00040F0020020642068816821F04051816045
:1051C0002068816841F08051816085488549006888
:1051D000B0FBF1F000EB800040000290009019D08D
:1051E000B0F1004F80F0F6800028D8BF002005DD28
:1051F00010F0010002D00299491E02910099401C52
:10520000491C884206DA029A801C521E521E0292E3
:105210008842F8DB2068816811F0805F03D08068E5
:1052200010F0005F0BD0206C20F0020040F0100066
:105230002064606C40F001006064206C0AE0206C27
:1052400010F0100F08BF002E04D12068816811F003
:10525000040F0AD0206C20F0020040F010002064FF
:105260004FF0010616B0304670BD216C21F48071FC
:1052700041F002012164DFF870C1B0F1A04F1ABF04
:1052800060455A495A495B4B5B4AB0F1A04F08BF91
:10529000CDF808C00ED0604504BF4FF0A04CCDF84B
:1052A00008C007D0904208BF029303D098420CBFB9
:1052B00002920295D0F808C00CF0030CBCF1010F6B
:1052C00003D1006810F0010F13D1029848B1806833
:1052D00000F00300012804D10298006810F0010FCB
:1052E00007D18868D4F804C020F4403040EA0C00AC
:1052F0008860D4E902100843616B012914BF4FF4A0
:10530000805C4FF0000C617E4CEA413C40EA0C00AE
:1053100094F820C0BCF1010F0AD161B3216C21F0D7
:10532000020141F020012164616C41F001016164DE
:10533000A16A012919D0D4F800C0944518BF9C4532
:1053400010D1B1F5307F08BF4FF4E0710AD0B1F54C
:10535000807F08BF4FF4307104D0B1F5E07F08BF03
:105360004FF480710843E16A084321688A6812F0AB
:105370000C0F16D108E0A18CDFF880C00CEB414186
:10538000084340F48030D3E7CA6822F0020222F4D6
:105390008042CA60217E94F83020890341EA4201AC
:1053A00008432168CA68164B1A401043C860206938
:1053B00001282068016B21F00F0102D1E269521E21
:1053C000114301636564206C20F0020040F001008D
:1053D000206447E70298401E0290FCD11AE70000C3
:1053E0008847002040420F00000100500007005095
:1053F0000003005000050050000400500000FEFFB4
:1054000007C0F0FF2DE9F04F87B000244D4A00940B
:1054100001940294039404940546D0F800C01068E7
:105420008026032377004849401C4FF480684FF0E2
:1054300020094FF4005ABCF1A04F2BD0ACF1A04B87
:10544000BBF5807B22D0ACF1A040B0F5A0601CBFC2
:1054500007B0BDE8F08F486940F0005048614869E6
:1054600000F000500590486940F480204861486988
:10547000694600F4802005904FF48040CDE9000398
:10548000324800F023FC07B0BDE8F08F106001281F
:1054900037D12EE01060012807D1486940F08050D4
:1054A0004861486900F080500590486940F4003038
:1054B00048614869694600F4003005900120CDE953
:1054C00000034FF0904000F001FCDFF888B0204866
:1054D000EBE802041F488BE8D007ABF1080B00F0A3
:1054E000D3FA60BBC5F838B0CBF8245007B0BDE89C
:1054F000F08F486940F080504861486900F0805062
:105500000590486940F4003048614869694600F4F4
:10551000003005904020CDE900034FF0904000F0AE
:10552000D5FBDFF838B00C48EBE802040B488BE8F9
:10553000D007ABF1080B00F0A7FA0028D2D0FFF794
:10554000B1F9CFE77847002000100240000400487E
:1055500008000240246C002008040240686C00200F
:105560002DE9F04104460068806810F0040F18BF70
:105570004FF0020C02D06046BDE8F08194F83C0088
:10558000012804BF0220BDE8F081012084F83C001E
:105590002046FDF760FC5FEA000C4FF0000518BFE5
:1055A00084F83C50E7D1206C20F0010020F46060CA
:1055B00040F48070206420683349344B4FF0A0429F
:1055C000B0F1A04F1ABF88421E68D2F8086316F0E7
:1055D0001F0F2F4E1CBFB0F1A04FB04246D1276C19
:1055E00027F480172764C76817F0007F05D0276C61
:1055F00027F4005747F480572764276C17F4805F1F
:1056000008BF656403D0676C27F00607676484F8F9
:105610003C504FF01C0505602068B0F1A04F16BF4C
:105620008842D2F808431C6814F01F0F19D0B0F15B
:10563000A04F16BF8842D2F808431C6804F01F042C
:10564000052C0ED0B0F1A04F16BF8842D2F8081337
:10565000196801F01F0109291CBFB0F1A04FB04229
:1056600089D1816841F00401816084E7276C47F4A7
:105670008017276488420EBFD768064F3F6817F02F
:10568000007FBAD0B3E700000001005008070050C7
:10569000000400500C04005030B4054600201E23C6
:1056A0004FF0010C01E05B1E05D303F01F040CFA60
:1056B00004F40C42F7D07AB1082A0BD0102A06D095
:1056C000182A01D1072B07D330BC01207047082BC3
:1056D000FAD201E0102BF7D22B68596129688B6848
:1056E00023F018031A438A6030BC7047002804BFB7
:1056F0000120704710B50446407F20B90020207774
:10570000204600F033F802206077207948B1D4E9D0
:1057100002122046FFF7C0FF002818BF012008D062
:1057200010BD2168104848612068816821F0180187
:105730008160607900280CBF4FF0FF30206921683C
:10574000086120688168626921F06001114381600D
:1057500020688168A26921F08001114381600120E5
:105760006077002010BD0000B71DC104006881B043
:10577000A0F18041B1F50C311CBF01B07047054864
:10578000416941F040014161406900F040000090F2
:1057900001B07047001002404379012B04BF022082
:1057A000704730B44FF0010C80F805C0022303713C
:1057B00003681C6840F6FE759540AC43D1E9005182
:1057C000294391402143196001680B68C02404FA01
:1057D00002F223EA02020A6080F804C0002141714B
:1057E00030BC08467047002804BF0120704770B5E0
:1057F00004460079002518B96571204600F008F8C4
:1058000002202071256101202071002070BD000060
:10581000F0B587B0002605460096019602960396DD
:1058200004960068A0F18041B1F5E8411CBF07B0C3
:10583000F0BD1949C86940F00050C861C86900F05E
:1058400000500590486940F40030486148691027CD
:1058500000F4003005900320CDE9007069464FF058
:10586000904000F033FA0E4C0C48C4E90007802049
:10587000C4E9026040002061800060612020C4E92A
:105880000606204600F000F9002818BFFFF70AF8C6
:10589000AC60656207B0F0BD001002403004024009
:1058A000C06C002081B0D0F800C0CDF800C0006806
:1058B000002910440CBF0830143000900360002011
:1058C00001B070474279012A04BF0220704710B42A
:1058D00001224271022303710368D3F800C002FA67
:1058E00001F44CEA040CC3F800C0002901680B68FD
:1058F00009D04FF4701C3CEA030304BF4B6843F02B
:10590000020309D009E04FF03C0C3CEA030304BF5A
:105910004B6843F0010300D14B60027100214171DB
:1059200010BC0846704790F821200021022A05D0BB
:105930000422826380F820100120704702681368F7
:1059400023F00E0313600268136823F00103136051
:1059500090F84030D0F83CC0012202FA03F3CCF8B2
:10596000043080F8212080F820100020704710B506
:1059700090F821100024022903D00421816301241E
:1059800019E001680A6822F00E020A6001680A68DC
:1059900022F001020A6090F84020C36B012101FA55
:1059A00002F25A6080F82110002180F82010416B2B
:1059B000002918BF8847204610BDF0B4C16BD1F84C
:1059C00000C001680B68046C042202FA04F515EAB1
:1059D0000C0F18BF13F0040F12D00B6813F0200F38
:1059E00003D10B6823F004030B6090F8401002FA17
:1059F00001F1C26B5160C16A002942D1F0BC70470D
:105A0000022606FA04F212EA0C0F4FF000054FF0DE
:105A1000010218BF13F0020F15D00B6813F0200F0E
:105A200005D10B6823F00A030B6080F8212090F861
:105A30004010C26B06FA01F1516080F82050816A73
:105A4000F9B9F0BC7047082606FA04F414EA0C0F02
:105A500012BF13F0080FF0BC70470B6823F00E0361
:105A60000B6090F84010C36B02FA01F15960826339
:105A700080F8212080F82050016B002904BFF0BC81
:105A80007047F0BC08470000002804BF01207047A1
:105A900010B4022180F8211002681168D0E9013C9D
:105AA00043EA0C03D0E903C44CEA040C43EA0C03B8
:105AB000D0F814C06FF30D1143EA0C03D0F818C0EE
:105AC00043EA0C03D0F81CC043EA0C0319431160ED
:105AD000104B0168104A994208D2104B1944A2FB9E
